{
  "contractName": "Main",
  "abi": [
    {
      "inputs": [],
      "stateMutability": "nonpayable",
      "type": "constructor"
    },
    {
      "anonymous": false,
      "inputs": [
        {
          "indexed": true,
          "internalType": "uint256",
          "name": "note",
          "type": "uint256"
        },
        {
          "indexed": true,
          "internalType": "string",
          "name": "matiere",
          "type": "string"
        },
        {
          "indexed": true,
          "internalType": "uint256",
          "name": "cin",
          "type": "uint256"
        }
      ],
      "name": "NoteAdded",
      "type": "event"
    },
    {
      "inputs": [],
      "name": "Admin",
      "outputs": [
        {
          "internalType": "address",
          "name": "",
          "type": "address"
        }
      ],
      "stateMutability": "view",
      "type": "function",
      "constant": true
    },
    {
      "inputs": [
        {
          "internalType": "uint256",
          "name": "",
          "type": "uint256"
        }
      ],
      "name": "notes",
      "outputs": [
        {
          "internalType": "uint256",
          "name": "note",
          "type": "uint256"
        },
        {
          "internalType": "string",
          "name": "matiere",
          "type": "string"
        },
        {
          "internalType": "uint256",
          "name": "cin",
          "type": "uint256"
        }
      ],
      "stateMutability": "view",
      "type": "function",
      "constant": true
    },
    {
      "inputs": [
        {
          "internalType": "uint256",
          "name": "",
          "type": "uint256"
        }
      ],
      "name": "notesList",
      "outputs": [
        {
          "internalType": "uint256",
          "name": "note",
          "type": "uint256"
        },
        {
          "internalType": "string",
          "name": "matiere",
          "type": "string"
        },
        {
          "internalType": "uint256",
          "name": "cin",
          "type": "uint256"
        }
      ],
      "stateMutability": "view",
      "type": "function",
      "constant": true
    },
    {
      "inputs": [
        {
          "internalType": "address",
          "name": "_id",
          "type": "address"
        },
        {
          "internalType": "string",
          "name": "_name",
          "type": "string"
        },
        {
          "internalType": "uint32",
          "name": "_phonenumber",
          "type": "uint32"
        },
        {
          "internalType": "string",
          "name": "_gouvernorat",
          "type": "string"
        }
      ],
      "name": "signupprofesseur",
      "outputs": [],
      "stateMutability": "nonpayable",
      "type": "function"
    },
    {
      "inputs": [
        {
          "internalType": "address",
          "name": "_id",
          "type": "address"
        },
        {
          "internalType": "string",
          "name": "_name",
          "type": "string"
        },
        {
          "internalType": "uint32",
          "name": "_phonenumber",
          "type": "uint32"
        },
        {
          "internalType": "string",
          "name": "_gouvernorat",
          "type": "string"
        },
        {
          "internalType": "uint32",
          "name": "_cin",
          "type": "uint32"
        },
        {
          "internalType": "string",
          "name": "_filiere",
          "type": "string"
        }
      ],
      "name": "signupetudiant",
      "outputs": [],
      "stateMutability": "nonpayable",
      "type": "function"
    },
    {
      "inputs": [
        {
          "internalType": "address",
          "name": "_id",
          "type": "address"
        },
        {
          "internalType": "string",
          "name": "_statut",
          "type": "string"
        }
      ],
      "name": "professeurManage",
      "outputs": [],
      "stateMutability": "nonpayable",
      "type": "function"
    },
    {
      "inputs": [
        {
          "internalType": "address",
          "name": "_id",
          "type": "address"
        },
        {
          "internalType": "string",
          "name": "_statut",
          "type": "string"
        }
      ],
      "name": "etudiantManage",
      "outputs": [],
      "stateMutability": "nonpayable",
      "type": "function"
    },
    {
      "inputs": [],
      "name": "isAdminExist",
      "outputs": [
        {
          "internalType": "string",
          "name": "",
          "type": "string"
        }
      ],
      "stateMutability": "view",
      "type": "function",
      "constant": true
    },
    {
      "inputs": [],
      "name": "isprofesseurExist",
      "outputs": [
        {
          "internalType": "string",
          "name": "",
          "type": "string"
        }
      ],
      "stateMutability": "view",
      "type": "function",
      "constant": true
    },
    {
      "inputs": [],
      "name": "isetudiantExist",
      "outputs": [
        {
          "internalType": "string",
          "name": "",
          "type": "string"
        }
      ],
      "stateMutability": "view",
      "type": "function",
      "constant": true
    },
    {
      "inputs": [],
      "name": "AdministrateurName",
      "outputs": [
        {
          "internalType": "string",
          "name": "",
          "type": "string"
        }
      ],
      "stateMutability": "view",
      "type": "function",
      "constant": true
    },
    {
      "inputs": [],
      "name": "professeurName",
      "outputs": [
        {
          "internalType": "string",
          "name": "",
          "type": "string"
        }
      ],
      "stateMutability": "view",
      "type": "function",
      "constant": true
    },
    {
      "inputs": [],
      "name": "etudiantName",
      "outputs": [
        {
          "internalType": "string",
          "name": "",
          "type": "string"
        }
      ],
      "stateMutability": "view",
      "type": "function",
      "constant": true
    },
    {
      "inputs": [],
      "name": "etudiantCin",
      "outputs": [
        {
          "internalType": "uint256",
          "name": "",
          "type": "uint256"
        }
      ],
      "stateMutability": "view",
      "type": "function",
      "constant": true
    },
    {
      "inputs": [
        {
          "internalType": "uint32",
          "name": "_note",
          "type": "uint32"
        },
        {
          "internalType": "string",
          "name": "_matiere",
          "type": "string"
        },
        {
          "internalType": "uint256",
          "name": "_cin",
          "type": "uint256"
        }
      ],
      "name": "setNote",
      "outputs": [],
      "stateMutability": "nonpayable",
      "type": "function"
    },
    {
      "inputs": [],
      "name": "getNotes",
      "outputs": [
        {
          "components": [
            {
              "internalType": "uint256",
              "name": "note",
              "type": "uint256"
            },
            {
              "internalType": "string",
              "name": "matiere",
              "type": "string"
            },
            {
              "internalType": "uint256",
              "name": "cin",
              "type": "uint256"
            }
          ],
          "internalType": "struct Main.Note[]",
          "name": "",
          "type": "tuple[]"
        }
      ],
      "stateMutability": "view",
      "type": "function",
      "constant": true
    },
    {
      "inputs": [],
      "name": "etudiantliste",
      "outputs": [
        {
          "internalType": "address[]",
          "name": "",
          "type": "address[]"
        },
        {
          "internalType": "string[]",
          "name": "",
          "type": "string[]"
        },
        {
          "internalType": "uint32[]",
          "name": "",
          "type": "uint32[]"
        },
        {
          "internalType": "string[]",
          "name": "",
          "type": "string[]"
        },
        {
          "internalType": "string[]",
          "name": "",
          "type": "string[]"
        },
        {
          "internalType": "uint32[]",
          "name": "",
          "type": "uint32[]"
        },
        {
          "internalType": "string[]",
          "name": "",
          "type": "string[]"
        }
      ],
      "stateMutability": "view",
      "type": "function",
      "constant": true
    },
    {
      "inputs": [],
      "name": "professeurliste",
      "outputs": [
        {
          "internalType": "address[]",
          "name": "",
          "type": "address[]"
        },
        {
          "internalType": "string[]",
          "name": "",
          "type": "string[]"
        },
        {
          "internalType": "uint32[]",
          "name": "",
          "type": "uint32[]"
        },
        {
          "internalType": "string[]",
          "name": "",
          "type": "string[]"
        },
        {
          "internalType": "string[]",
          "name": "",
          "type": "string[]"
        }
      ],
      "stateMutability": "view",
      "type": "function",
      "constant": true
    }
  ],
  "bytecode": "0x6080604052600080546001600160a01b031916730fcb6520a6339e641b561cb0971d0756cceae9311790553480156200003757600080fd5b50604080518082018252600e81526d20bd36b4903132b73730b1b2bab960911b6020808301918252600080546001600160a01b031681526001918290529390932091516200008a93929092019162000091565b5062000173565b8280546200009f9062000137565b90600052602060002090601f016020900481019282620000c357600085556200010e565b82601f10620000de57805160ff19168380011785556200010e565b828001600101855582156200010e579182015b828111156200010e578251825591602001919060010190620000f1565b506200011c92915062000120565b5090565b5b808211156200011c576000815560010162000121565b600181811c908216806200014c57607f821691505b6020821081036200016d57634e487b7160e01b600052602260045260246000fd5b50919050565b61283180620001836000396000f3fe608060405234801561001057600080fd5b50600436106101165760003560e01c80638160d19d116100a2578063bdd2d5c111610071578063bdd2d5c11461021d578063cb19da1014610244578063df67db201461024c578063f87d106714610254578063ff1b636d1461026757600080fd5b80638160d19d146101e5578063a67b4c2e146101f8578063b199c1ed14610200578063b4af200d1461020857600080fd5b806361c3a7e6116100e957806361c3a7e61461017e578063662ad9941461019157806371987517146101a657806372d40cd3146101b95780637e8151a2146101cc57600080fd5b8063119186791461011b5780631421e81b1461013f57806336059be3146101545780634fb9728714610176575b600080fd5b610123610292565b6040516101369796959493929190612206565b60405180910390f35b610147610d27565b604051610136919061229d565b6101676101623660046122b7565b610df0565b604051610136939291906122d0565b610147610eae565b61016761018c3660046122b7565b610f02565b6101a461019f366004612315565b610f24565b005b6101a46101b436600461244d565b610f50565b6101a46101c7366004612505565b61113e565b6101d461134f565b60405161013695949392919061255b565b6101a46101f3366004612315565b611be4565b610147611c0a565b610147611c4b565b610210611cef565b60405161013691906125c8565b3360009081526003602052604090206005015463ffffffff16604051908152602001610136565b610147611df4565b610147611e15565b6101a4610262366004612649565b611e37565b60005461027a906001600160a01b031681565b6040516001600160a01b039091168152602001610136565b606080606080606080606060006007805490506001600160401b038111156102bc576102bc612397565b6040519080825280602002602001820160405280156102e5578160200160208202803683370190505b506007549091506000906001600160401b0381111561030657610306612397565b60405190808252806020026020018201604052801561033957816020015b60608152602001906001900390816103245790505b506007549091506000906001600160401b0381111561035a5761035a612397565b604051908082528060200260200182016040528015610383578160200160208202803683370190505b506007549091506000906001600160401b038111156103a4576103a4612397565b6040519080825280602002602001820160405280156103d757816020015b60608152602001906001900390816103c25790505b506007549091506000906001600160401b038111156103f8576103f8612397565b60405190808252806020026020018201604052801561042b57816020015b60608152602001906001900390816104165790505b506007549091506000906001600160401b0381111561044c5761044c612397565b604051908082528060200260200182016040528015610475578160200160208202803683370190505b506007549091506000906001600160401b0381111561049657610496612397565b6040519080825280602002602001820160405280156104c957816020015b60608152602001906001900390816104b45790505b50905060005b600754811015610d10576000546001600160a01b031633036109cf57600781815481106104fe576104fe6126cd565b9060005260206000200160009054906101000a90046001600160a01b031688828151811061052e5761052e6126cd565b60200260200101906001600160a01b031690816001600160a01b0316815250506003600060078381548110610565576105656126cd565b60009182526020808320909101546001600160a01b0316835282019290925260400190206001018054610597906126e3565b80601f01602080910402602001604051908101604052809291908181526020018280546105c3906126e3565b80156106105780601f106105e557610100808354040283529160200191610610565b820191906000526020600020905b8154815290600101906020018083116105f357829003601f168201915b5050505050878281518110610627576106276126cd565b60200260200101819052506003600060078381548110610649576106496126cd565b60009182526020808320909101546001600160a01b03168352820192909252604001902060020154865163ffffffff9091169087908390811061068e5761068e6126cd565b602002602001019063ffffffff16908163ffffffff168152505060036000600783815481106106bf576106bf6126cd565b60009182526020808320909101546001600160a01b03168352820192909252604001902060030180546106f1906126e3565b80601f016020809104026020016040519081016040528092919081815260200182805461071d906126e3565b801561076a5780601f1061073f5761010080835404028352916020019161076a565b820191906000526020600020905b81548152906001019060200180831161074d57829003601f168201915b5050505050858281518110610781576107816126cd565b602002602001018190525060036000600783815481106107a3576107a36126cd565b60009182526020808320909101546001600160a01b03168352820192909252604001902060040180546107d5906126e3565b80601f0160208091040260200160405190810160405280929190818152602001828054610801906126e3565b801561084e5780601f106108235761010080835404028352916020019161084e565b820191906000526020600020905b81548152906001019060200180831161083157829003601f168201915b5050505050848281518110610865576108656126cd565b60200260200101819052506003600060078381548110610887576108876126cd565b60009182526020808320909101546001600160a01b03168352820192909252604001902060050154835163ffffffff909116908490839081106108cc576108cc6126cd565b602002602001019063ffffffff16908163ffffffff168152505060036000600783815481106108fd576108fd6126cd565b60009182526020808320909101546001600160a01b031683528201929092526040019020600601805461092f906126e3565b80601f016020809104026020016040519081016040528092919081815260200182805461095b906126e3565b80156109a85780601f1061097d576101008083540402835291602001916109a8565b820191906000526020600020905b81548152906001019060200180831161098b57829003601f168201915b50505050508282815181106109bf576109bf6126cd565b6020026020010181905250610cfe565b604051684465626c6f7175656560b81b6020820152602901604051602081830303815290604052805190602001206003600060078481548110610a1457610a146126cd565b60009182526020808320909101546001600160a01b0316835282810193909352604091820190209051610a4d926004909201910161271d565b6040516020818303038152906040528051906020012003610cfe5760078181548110610a7b57610a7b6126cd565b9060005260206000200160009054906101000a90046001600160a01b0316888281518110610aab57610aab6126cd565b60200260200101906001600160a01b031690816001600160a01b0316815250506003600060078381548110610ae257610ae26126cd565b60009182526020808320909101546001600160a01b0316835282019290925260400190206001018054610b14906126e3565b80601f0160208091040260200160405190810160405280929190818152602001828054610b40906126e3565b8015610b8d5780601f10610b6257610100808354040283529160200191610b8d565b820191906000526020600020905b815481529060010190602001808311610b7057829003601f168201915b5050505050878281518110610ba457610ba46126cd565b60200260200101819052506003600060078381548110610bc657610bc66126cd565b60009182526020808320909101546001600160a01b03168352820192909252604001902060020154865163ffffffff90911690879083908110610c0b57610c0b6126cd565b602002602001019063ffffffff16908163ffffffff16815250506003600060078381548110610c3c57610c3c6126cd565b60009182526020808320909101546001600160a01b0316835282019290925260400190206003018054610c6e906126e3565b80601f0160208091040260200160405190810160405280929190818152602001828054610c9a906126e3565b8015610ce75780601f10610cbc57610100808354040283529160200191610ce7565b820191906000526020600020905b815481529060010190602001808311610cca57829003601f168201915b5050505050858281518110610865576108656126cd565b80610d08816127b8565b9150506104cf565b50959d949c50929a50909850965094509092509050565b3360009081526003602052604090208054606091906001600160a01b031615801590610da657506040516541637469766560d01b60208201526026015b6040516020818303038152906040528051906020012081600401604051602001610d8e919061271d565b60405160208183030381529060405280519060200120145b15610dcb5750506040805180820190915260048152637472756560e01b602082015290565b505060408051808201909152600581526466616c736560d81b602082015290565b5090565b60058181548110610e0057600080fd5b60009182526020909120600390910201805460018201805491935090610e25906126e3565b80601f0160208091040260200160405190810160405280929190818152602001828054610e51906126e3565b8015610e9e5780601f10610e7357610100808354040283529160200191610e9e565b820191906000526020600020905b815481529060010190602001808311610e8157829003601f168201915b5050505050908060020154905083565b6000546060906001600160a01b03163303610ee257506040805180820190915260048152637472756560e01b602082015290565b5060408051808201909152600581526466616c736560d81b602082015290565b60046020526000908152604090208054600182018054919291610e25906126e3565b6001600160a01b0383166000908152600360205260409020610f4a906004018383611fd3565b50505050565b6001600160a01b038681166000908152600360205260409020541615610fb55760405162461bcd60e51b8152602060048201526015602482015274416472657373652064656a61207574696c6973656560581b60448201526064015b60405180910390fd5b6040805160e0810182526001600160a01b0388811680835260208084018a815263ffffffff8a811686880152606086018a905286518088018852600681526541637469766560d01b818501526080870152881660a086015260c0850187905260009283526003825294909120835181546001600160a01b0319169316929092178255925180519293919261104f9260018501920190612053565b50604082015160028201805463ffffffff191663ffffffff9092169190911790556060820151805161108b916003840191602090910190612053565b50608082015180516110a7916004840191602090910190612053565b5060a082015160058201805463ffffffff191663ffffffff90921691909117905560c082015180516110e3916006840191602090910190612053565b5050600780546001810182556000919091527fa66cc928b5edb82af9bd49922954155ab7b0942694bea4ce44661d9a8736c6880180546001600160a01b0319166001600160a01b039890981697909717909655505050505050565b60008363ffffffff16116111945760405162461bcd60e51b815260206004820152601b60248201527f4e6f7465206d7573742062652067726561746572207468616e203000000000006044820152606401610fac565b60008251116111db5760405162461bcd60e51b815260206004820152601360248201527213585d1a595c99481a5cc81c995c5d5a5c9959606a1b6044820152606401610fac565b600081116112225760405162461bcd60e51b815260206004820152601460248201527343494e206d75737420626520706f73697469766560601b6044820152606401610fac565b6040805160608101825263ffffffff85168152602080820185815282840185905260008581526004835293909320825181559251805192938493909261126f926001850192910190612053565b506040919091015160029091015560058054600181018255600091909152815160039091027f036b6384b5eca791c62761152d0c79bb0604c104a5fb6f4eb0703f3154bb3db0810191825560208084015180518594936112f5937f036b6384b5eca791c62761152d0c79bb0604c104a5fb6f4eb0703f3154bb3db1909101920190612053565b50604082015181600201555050818360405161131191906127df565b6040519081900381209063ffffffff8716907f1b5c2798b90afdd0b90bfbe733cd7d0bc9b11cd582644917ce74ee8c6e6c6feb90600090a450505050565b606080606080606060006008805490506001600160401b0381111561137657611376612397565b60405190808252806020026020018201604052801561139f578160200160208202803683370190505b506008549091506000906001600160401b038111156113c0576113c0612397565b6040519080825280602002602001820160405280156113f357816020015b60608152602001906001900390816113de5790505b506008549091506000906001600160401b0381111561141457611414612397565b60405190808252806020026020018201604052801561143d578160200160208202803683370190505b506008549091506000906001600160401b0381111561145e5761145e612397565b60405190808252806020026020018201604052801561149157816020015b606081526020019060019003908161147c5790505b506008549091506000906001600160401b038111156114b2576114b2612397565b6040519080825280602002602001820160405280156114e557816020015b60608152602001906001900390816114d05790505b50905060005b600854811015611bd2576000546001600160a01b03163303611891576008818154811061151a5761151a6126cd565b9060005260206000200160009054906101000a90046001600160a01b031686828151811061154a5761154a6126cd565b60200260200101906001600160a01b031690816001600160a01b0316815250506002600060088381548110611581576115816126cd565b60009182526020808320909101546001600160a01b03168352820192909252604001902060010180546115b3906126e3565b80601f01602080910402602001604051908101604052809291908181526020018280546115df906126e3565b801561162c5780601f106116015761010080835404028352916020019161162c565b820191906000526020600020905b81548152906001019060200180831161160f57829003601f168201915b5050505050858281518110611643576116436126cd565b60200260200101819052506002600060088381548110611665576116656126cd565b60009182526020808320909101546001600160a01b03168352820192909252604001902060020154845163ffffffff909116908590839081106116aa576116aa6126cd565b602002602001019063ffffffff16908163ffffffff168152505060026000600883815481106116db576116db6126cd565b60009182526020808320909101546001600160a01b031683528201929092526040019020600301805461170d906126e3565b80601f0160208091040260200160405190810160405280929190818152602001828054611739906126e3565b80156117865780601f1061175b57610100808354040283529160200191611786565b820191906000526020600020905b81548152906001019060200180831161176957829003601f168201915b505050505083828151811061179d5761179d6126cd565b602002602001018190525060026000600883815481106117bf576117bf6126cd565b60009182526020808320909101546001600160a01b03168352820192909252604001902060040180546117f1906126e3565b80601f016020809104026020016040519081016040528092919081815260200182805461181d906126e3565b801561186a5780601f1061183f5761010080835404028352916020019161186a565b820191906000526020600020905b81548152906001019060200180831161184d57829003601f168201915b5050505050828281518110611881576118816126cd565b6020026020010181905250611bc0565b604051684465626c6f7175656560b81b60208201526029016040516020818303038152906040528051906020012060026000600884815481106118d6576118d66126cd565b60009182526020808320909101546001600160a01b031683528281019390935260409182019020905161190f926004909201910161271d565b6040516020818303038152906040528051906020012003611bc0576008818154811061193d5761193d6126cd565b9060005260206000200160009054906101000a90046001600160a01b031686828151811061196d5761196d6126cd565b60200260200101906001600160a01b031690816001600160a01b03168152505060026000600883815481106119a4576119a46126cd565b60009182526020808320909101546001600160a01b03168352820192909252604001902060010180546119d6906126e3565b80601f0160208091040260200160405190810160405280929190818152602001828054611a02906126e3565b8015611a4f5780601f10611a2457610100808354040283529160200191611a4f565b820191906000526020600020905b815481529060010190602001808311611a3257829003601f168201915b5050505050858281518110611a6657611a666126cd565b60200260200101819052506002600060088381548110611a8857611a886126cd565b60009182526020808320909101546001600160a01b03168352820192909252604001902060020154845163ffffffff90911690859083908110611acd57611acd6126cd565b602002602001019063ffffffff16908163ffffffff16815250506002600060088381548110611afe57611afe6126cd565b60009182526020808320909101546001600160a01b0316835282019290925260400190206003018054611b30906126e3565b80601f0160208091040260200160405190810160405280929190818152602001828054611b5c906126e3565b8015611ba95780601f10611b7e57610100808354040283529160200191611ba9565b820191906000526020600020905b815481529060010190602001808311611b8c57829003601f168201915b5050505050838281518110611881576118816126cd565b80611bca816127b8565b9150506114eb565b50939992985090965094509092509050565b6001600160a01b0383166000908152600260205260409020610f4a906004018383611fd3565b3360009081526002602052604090208054606091906001600160a01b031615801590610da657506040516541637469766560d01b6020820152602601610d64565b336000908152600360205260409020600101805460609190611c6c906126e3565b80601f0160208091040260200160405190810160405280929190818152602001828054611c98906126e3565b8015611ce55780601f10611cba57610100808354040283529160200191611ce5565b820191906000526020600020905b815481529060010190602001808311611cc857829003601f168201915b5050505050905090565b60606005805480602002602001604051908101604052809291908181526020016000905b82821015611deb578382906000526020600020906003020160405180606001604052908160008201548152602001600182018054611d50906126e3565b80601f0160208091040260200160405190810160405280929190818152602001828054611d7c906126e3565b8015611dc95780601f10611d9e57610100808354040283529160200191611dc9565b820191906000526020600020905b815481529060010190602001808311611dac57829003601f168201915b5050505050815260200160028201548152505081526020019060010190611d13565b50505050905090565b336000908152600260205260409020600101805460609190611c6c906126e3565b33600090815260016020819052604090912001805460609190611c6c906126e3565b6001600160a01b038481166000908152600260205260409020541615611e975760405162461bcd60e51b8152602060048201526015602482015274416472657373652064656a61207574696c6973656560581b6044820152606401610fac565b6040805160a0810182526001600160a01b03868116808352602080840188815263ffffffff8816858701526060850187905285518087018752600681526541637469766560d01b81840152608086015260009283526002825294909120835181546001600160a01b03191693169290921782559251805192939192611f229260018501920190612053565b50604082015160028201805463ffffffff191663ffffffff90921691909117905560608201518051611f5e916003840191602090910190612053565b5060808201518051611f7a916004840191602090910190612053565b5050600880546001810182556000919091527ff3f7a9fe364faab93b216da50a3214154f22a0a2b415b23a84c8169e8b636ee30180546001600160a01b0319166001600160a01b03969096169590951790945550505050565b828054611fdf906126e3565b90600052602060002090601f0160209004810192826120015760008555612047565b82601f1061201a5782800160ff19823516178555612047565b82800160010185558215612047579182015b8281111561204757823582559160200191906001019061202c565b50610dec9291506120c7565b82805461205f906126e3565b90600052602060002090601f0160209004810192826120815760008555612047565b82601f1061209a57805160ff1916838001178555612047565b82800160010185558215612047579182015b828111156120475782518255916020019190600101906120ac565b5b80821115610dec57600081556001016120c8565b600081518084526020808501945080840160005b838110156121155781516001600160a01b0316875295820195908201906001016120f0565b509495945050505050565b60005b8381101561213b578181015183820152602001612123565b83811115610f4a5750506000910152565b60008151808452612164816020860160208601612120565b601f01601f19169290920160200192915050565b600082825180855260208086019550808260051b84010181860160005b848110156121c357601f198684030189526121b183835161214c565b98840198925090830190600101612195565b5090979650505050505050565b600081518084526020808501945080840160005b8381101561211557815163ffffffff16875295820195908201906001016121e4565b60e08152600061221960e083018a6120dc565b828103602084015261222b818a612178565b9050828103604084015261223f81896121d0565b905082810360608401526122538188612178565b905082810360808401526122678187612178565b905082810360a084015261227b81866121d0565b905082810360c084015261228f8185612178565b9a9950505050505050505050565b6020815260006122b0602083018461214c565b9392505050565b6000602082840312156122c957600080fd5b5035919050565b8381526060602082015260006122e9606083018561214c565b9050826040830152949350505050565b80356001600160a01b038116811461231057600080fd5b919050565b60008060006040848603121561232a57600080fd5b612333846122f9565b925060208401356001600160401b038082111561234f57600080fd5b818601915086601f83011261236357600080fd5b81358181111561237257600080fd5b87602082850101111561238457600080fd5b6020830194508093505050509250925092565b634e487b7160e01b600052604160045260246000fd5b600082601f8301126123be57600080fd5b81356001600160401b03808211156123d8576123d8612397565b604051601f8301601f19908116603f0116810190828211818310171561240057612400612397565b8160405283815286602085880101111561241957600080fd5b836020870160208301376000602085830101528094505050505092915050565b803563ffffffff8116811461231057600080fd5b60008060008060008060c0878903121561246657600080fd5b61246f876122f9565b955060208701356001600160401b038082111561248b57600080fd5b6124978a838b016123ad565b96506124a560408a01612439565b955060608901359150808211156124bb57600080fd5b6124c78a838b016123ad565b94506124d560808a01612439565b935060a08901359150808211156124eb57600080fd5b506124f889828a016123ad565b9150509295509295509295565b60008060006060848603121561251a57600080fd5b61252384612439565b925060208401356001600160401b0381111561253e57600080fd5b61254a868287016123ad565b925050604084013590509250925092565b60a08152600061256e60a08301886120dc565b82810360208401526125808188612178565b9050828103604084015261259481876121d0565b905082810360608401526125a88186612178565b905082810360808401526125bc8185612178565b98975050505050505050565b60006020808301818452808551808352604092508286019150828160051b87010184880160005b8381101561263b57603f19898403018552815160608151855288820151818a87015261261d8287018261214c565b928901519589019590955250948701949250908601906001016125ef565b509098975050505050505050565b6000806000806080858703121561265f57600080fd5b612668856122f9565b935060208501356001600160401b038082111561268457600080fd5b612690888389016123ad565b945061269e60408801612439565b935060608701359150808211156126b457600080fd5b506126c1878288016123ad565b91505092959194509250565b634e487b7160e01b600052603260045260246000fd5b600181811c908216806126f757607f821691505b60208210810361271757634e487b7160e01b600052602260045260246000fd5b50919050565b600080835481600182811c91508083168061273957607f831692505b6020808410820361275857634e487b7160e01b86526022600452602486fd5b81801561276c576001811461277d576127aa565b60ff198616895284890196506127aa565b60008a81526020902060005b868110156127a25781548b820152908501908301612789565b505084890196505b509498975050505050505050565b6000600182016127d857634e487b7160e01b600052601160045260246000fd5b5060010190565b600082516127f1818460208701612120565b919091019291505056fea26469706673582212202e24618a4ab3234555795f8521ce433080684a319ce9c22074896847bdfd1d5864736f6c634300080d0033",
  "immutableReferences": {},
  "source": "// SPDX-License-Identifier: GPL-3.0\n\npragma solidity >=0.7.0 <0.9.0;\n\ncontract Main {\n    address public Admin = 0x0Fcb6520a6339e641b561cb0971d0756CCeaE931;\n    mapping(address => _Admin) internal Admins;\n    mapping(address => _professeur) internal professeurs;\n    mapping(address => _etudiant) internal etudiants;\n    mapping(uint256 => Note) public notes;\n\n    Note[] public notesList;\n\n    struct _Admin {\n        address Admin_id;\n        string name;\n    }\n\n    struct _professeur {\n        address professeur_id;\n        string name;\n        uint32 phonenumber;\n        string gouvernorat;\n        string statut;\n    }\n\n    struct _etudiant {\n        address etudiant_id;\n        string name;\n        uint32 phonenumber;\n        string gouvernorat;\n        string statut;\n        uint32 cin;\n        string filiere;\n    }\n\n    struct Note {\n        uint256 note;\n        string matiere;\n        uint256 cin;\n    }\n    \n    event NoteAdded(uint256 indexed note, string indexed matiere, uint256 indexed cin);\n\n    uint32[] Number;\n    address[] etudiantlist;\n    address[] professeurlist;\n\n    constructor() { \n       Admins[Admin].name = \"Azmi bennaceur\";\n    }\n\n    function signupprofesseur(\n        address _id,\n        string memory _name,\n        uint32 _phonenumber,\n        string memory _gouvernorat\n    ) public {\n        require(professeurs[_id].professeur_id == address(0), \"Adresse deja utilisee\");\n        professeurs[_id] = _professeur({\n            professeur_id: _id,\n            name: _name,\n            phonenumber: _phonenumber,\n            gouvernorat: _gouvernorat,\n            statut: \"Active\"\n        });\n        professeurlist.push(_id);\n    }\n\n    function signupetudiant(\n        address _id,\n        string memory _name,\n        uint32 _phonenumber,\n        string memory _gouvernorat,\n        uint32 _cin,\n        string memory _filiere\n    ) public {\n        require(etudiants[_id].etudiant_id == address(0), \"Adresse deja utilisee\");\n        etudiants[_id] = _etudiant({\n            etudiant_id: _id,\n            name: _name,\n            phonenumber: _phonenumber,\n            gouvernorat: _gouvernorat,\n            statut: \"Active\",\n            cin: _cin,\n            filiere: _filiere\n        });\n        etudiantlist.push(_id);\n    }\n\n    function professeurManage(address _id, string calldata _statut) external {\n        professeurs[_id].statut = _statut;\n    }\n\n    function etudiantManage(address _id, string calldata _statut) external {\n        etudiants[_id].statut = _statut;\n    }\n\n    function isAdminExist() external view returns (string memory) {\n        if (msg.sender == Admin) {\n            return \"true\";\n        } else {\n            return \"false\";\n        }\n    }\n\n    function isprofesseurExist() external view returns (string memory) {\n        _professeur storage p = professeurs[msg.sender];\n        if (\n            (p.professeur_id > address(0x0)) &&\n            (keccak256(abi.encodePacked(p.statut)) ==\n                keccak256(abi.encodePacked(\"Active\")))\n        ) {\n            return \"true\";\n        } else {\n            return \"false\";\n        }\n    }\n\n    function isetudiantExist() external view returns (string memory) {\n        _etudiant storage l = etudiants[msg.sender];\n        if (\n            (l.etudiant_id > address(0x0)) &&\n            (keccak256(abi.encodePacked(l.statut)) ==\n                keccak256(abi.encodePacked(\"Active\")))\n        ) {\n            return \"true\";\n        } else {\n            return \"false\";\n        }\n    }\n\n    function AdministrateurName() external view returns (string memory) {\n        return Admins[msg.sender].name;\n    }\n\n    function professeurName() external view returns (string memory) {\n        return professeurs[msg.sender].name;\n    }\n\n    function etudiantName() external view returns (string memory) {\n        return etudiants[msg.sender].name;\n    }\n\n    function etudiantCin() external view returns (uint256 ) {\n        return etudiants[msg.sender].cin;\n    }\n\n    function setNote(\n        uint32 _note,\n        string memory _matiere,\n        uint256 _cin\n    ) public {\n        require(_note > 0, \"Note must be greater than 0\");\n        require(bytes(_matiere).length > 0, \"Matiere is required\");\n        require(_cin > 0, \"CIN must be positive\");\n\n        Note memory newNote = Note({\n            note: _note,\n            matiere: _matiere,\n            cin: _cin\n        });\n\n        notes[_cin] = newNote;\n        notesList.push(newNote); // Push the new note to the array\n\n        emit NoteAdded(_note, _matiere, _cin); // Emit the NoteAdded event\n    }\n\n    function getNotes() external view returns (Note[] memory) {\n        return notesList;\n    }\n\n   \n\n    function etudiantliste()\n        external\n        view\n        returns (\n            address[] memory,\n            string[] memory,\n            uint32[] memory,\n            string[] memory,\n            string[] memory,\n            uint32[] memory,\n            string[] memory\n        )\n    {\n        address[] memory id = new address[](etudiantlist.length);\n        string[] memory name = new string[](etudiantlist.length);\n        uint32[] memory phonenumber = new uint32[](etudiantlist.length);\n        string[] memory gouvernorat = new string[](etudiantlist.length);\n        string[] memory statut = new string[](etudiantlist.length);\n        uint32[] memory cin = new uint32[](etudiantlist.length);\n        string[] memory filiere = new string[](etudiantlist.length);\n\n        for (uint256 i = 0; i < etudiantlist.length; i++) {\n            if (msg.sender == Admin) {\n                id[i] = etudiantlist[i];\n                name[i] = etudiants[etudiantlist[i]].name;\n                phonenumber[i] = etudiants[etudiantlist[i]].phonenumber;\n                gouvernorat[i] = etudiants[etudiantlist[i]].gouvernorat;\n                statut[i] = etudiants[etudiantlist[i]].statut;\n                cin[i] = etudiants[etudiantlist[i]].cin;\n                filiere[i] = etudiants[etudiantlist[i]].filiere;\n            } else {\n                if (\n                    keccak256(\n                        abi.encodePacked(etudiants[etudiantlist[i]].statut)\n                    ) == keccak256(abi.encodePacked(\"Debloquee\"))\n                ) {\n                    id[i] = etudiantlist[i];\n                    name[i] = etudiants[etudiantlist[i]].name;\n                    phonenumber[i] = etudiants[etudiantlist[i]]\n                        .phonenumber;\n                    gouvernorat[i] = etudiants[etudiantlist[i]]\n                        .gouvernorat;\n                    cin[i] = etudiants[etudiantlist[i]].cin;\n                    filiere[i] = etudiants[etudiantlist[i]].filiere;\n                } else {\n                    continue;\n                }\n            }\n        }\n        return (id, name, phonenumber, gouvernorat, statut, cin, filiere);\n    }\n\n    function professeurliste()\n        external\n        view\n        returns (\n            address[] memory,\n            string[] memory,\n            uint32[] memory,\n            string[] memory,\n            string[] memory\n        )\n    {\n        address[] memory id = new address[](professeurlist.length);\n        string[] memory name = new string[](professeurlist.length);\n        uint32[] memory phonenumber = new uint32[](professeurlist.length);\n        string[] memory gouvernorat = new string[](professeurlist.length);\n        string[] memory statut = new string[](professeurlist.length);\n        for (uint256 i = 0; i < professeurlist.length; i++) {\n            if (msg.sender == Admin) {\n                id[i] = professeurlist[i];\n                name[i] = professeurs[professeurlist[i]].name;\n                phonenumber[i] = professeurs[professeurlist[i]].phonenumber;\n                gouvernorat[i] = professeurs[professeurlist[i]].gouvernorat;\n                statut[i] = professeurs[professeurlist[i]].statut;\n            } else {\n                if (\n                    keccak256(\n                        abi.encodePacked(\n                            professeurs[professeurlist[i]].statut\n                        )\n                    ) == keccak256(abi.encodePacked(\"Debloquee\"))\n                ) {\n                    id[i] = professeurlist[i];\n                    name[i] = professeurs[professeurlist[i]].name;\n                    phonenumber[i] = professeurs[professeurlist[i]]\n                        .phonenumber;\n                    gouvernorat[i] = professeurs[professeurlist[i]]\n                        .gouvernorat;\n                } else {\n                    continue;\n                }\n            }\n        }\n        return (id, name, phonenumber, gouvernorat, statut);\n    }\n}\n",
  "sourcePath": "C:\\Users\\Azmiben\\Desktop\\New folder (9)\\New folder (5)\\Appliation React\\contracts\\Main.sol",
  "compiler": {
    "name": "solc",
    "version": "0.8.13+commit.abaa5c0e.Emscripten.clang"
  },
  "schemaVersion": "3.4.16",
  "updatedAt": "2024-10-28T13:45:33.643Z",
  "networkType": "ethereum",
  "devdoc": {
    "kind": "dev",
    "methods": {},
    "version": 1
  },
  "userdoc": {
    "kind": "user",
    "methods": {},
    "version": 1
  }
}